:100000000C945E000C9486000C9486000C94860080
:100010000C9486000C9486000C9486000C94860048
:100020000C9486000C9486000C9486000C94860038
:100030000C9486000C9486000C9486000C94860028
:100040000C94C4040C9486000C9434050C940E0596
:100050000C9486000C9486000C9486000C94860008
:100060000C9486000C9486000000000024002700F9
:100070002A0000000008000201000003040700003D
:10008000000000000000010204081020408001026E
:1000900004081020010204081020000000002500C0
:1000A00028002B00040404040404040402020202D5
:1000B00002020303030303036605480811241FBE5D
:1000C000CFEFD8E0DEBFCDBF22E0A2E4B1E001C0B7
:1000D0001D92A530B207E1F711E0A0E0B1E0ECEA33
:1000E000F9E102C005900D92A234B107D9F710E0F2
:1000F000CDE5D0E004C02197FE010E94B70ACC35BF
:10010000D107C9F70E9404060C94C90C0C94000096
:1001100090E0FC01EE58FF4F2491FC01EA57FF4F9D
:100120003491FC01EC55FF4FE491EE23B9F1222309
:1001300039F1233091F038F42130A9F0223001F563
:1001400084B58F7D12C0273091F02830A1F0243083
:10015000B9F4809180008F7D03C0809180008F77FB
:10016000809380000DC084B58F7784BD09C08091D5
:10017000B0008F7703C08091B0008F7D8093B00076
:10018000F0E0EE0FFF1FE656FF4FA591B4918FB739
:10019000F894EC9130953E233C938FBF0895E09105
:1001A0004F01F09150010190F081E02D682F8FE414
:1001B00091E009942FB7F89480914B0190914C01F4
:1001C000A0914D01B0914E012FBF809357019093A4
:1001D0005801A0935901B0935A01E0914F01F09159
:1001E00050010680F781E02D8FE491E0099597FF9B
:1001F00026C02FB7F89480914B0190914C01A091AB
:100200004D01B0914E012FBF4091570150915801BF
:100210006091590170915A01841B950BA60BB70B85
:1002200040915301509154016091550170915601D4
:1002300084179507A607B70780F28FEF9FEF089501
:10024000CF93DF9390E0FC01EA57FF4F2491FC012C
:10025000EC55FF4F8491882361F190E0880F991F3E
:10026000FC01E859FF4FC591D491FC01E656FF4FC0
:10027000A591B491611109C09FB7F8948881209528
:1002800082238883EC912E230BC0623061F49FB7E8
:10029000F8943881822F809583238883EC912E2BCC
:1002A0002C939FBF06C08FB7F894E8812E2B28832C
:1002B0008FBFDF91CF9108953FB7F89480914701A8
:1002C00090914801A0914901B0914A0126B5A89B9F
:1002D00005C02F3F19F00196A11DB11D3FBFBA2FD8
:1002E000A92F982F8827820F911DA11DB11DBC0138
:1002F000CD0142E0660F771F881F991F4A95D1F7FD
:100300000895CF92DF92EF92FF920F931F93CF93B6
:10031000DF936C017A018B01C0E0D0E0CE15DF05E0
:1003200089F0D8016D918D01D601ED91FC9101907C
:10033000F081E02DC6010995892B11F47E0102C0E0
:100340002196ECCFC701DF91CF911F910F91FF90C4
:10035000EF90DF90CF900895FC01918D828D9817DA
:1003600061F0828DDF01A80FB11D5D968C91928D99
:100370009F5F9F73928F90E008958FEF9FEF089596
:10038000FC01918D828D981731F0828DE80FF11D5F
:10039000858D90E008958FEF9FEF0895FC01918D7A
:1003A000228D892F90E0805C9F4F821B91098F7373
:1003B000992708958FE491E00E94CE0121E0892BD6
:1003C00009F420E0822F0895FC01848DDF01A80F3D
:1003D000B11DA35ABF4F2C91848D90E001968F736D
:1003E0009927848FA689B7892C93A089B1898C918C
:1003F00080648C93938D848D981306C00288F38952
:10040000E02D80818F7D80830895EF92FF920F937E
:100410001F93CF93DF93EC0181E0888F9B8D8C8DB0
:10042000981305C0E889F989808185FD24C0F62EDE
:100430000B8D10E00F5F1F4F0F731127E02E8C8D77
:10044000E8120CC00FB607FCFACFE889F989808161
:1004500085FFF5CFCE010E94E401F1CF8B8DFE0127
:10046000E80FF11DE35AFF4FF0820B8FEA89FB89F9
:100470008081806207C0EE89FF896083E889F989FD
:1004800080818064808381E090E0DF91CF911F9133
:100490000F91FF90EF900895CF93DF93EC01888D3B
:1004A0008823C9F0EA89FB89808185FD05C0A88978
:1004B000B9898C9186FD0FC00FB607FCF5CF8081FE
:1004C00085FFF2CFA889B9898C9185FFEDCFCE0148
:1004D0000E94E401E7CFDF91CF91089580E090E0A2
:1004E000892B29F00E94DA0181110C9400000895F3
:1004F000009769F0FC0101900020E9F73197AF0106
:10050000481B590BBC018FE491E00C94810180E001
:1005100090E008958F929F92AF92BF920F931F9396
:10052000CF93DF93CDB7DEB7A1970FB6F894DEBFB8
:100530000FBECDBF19A2423008F44AE08E010F5D14
:100540001F4F842E912CA12CB12CA50194010E9447
:10055000950AE62FB901CA0101501109EA3014F4D5
:10056000E05D01C0E95CD801EC93232B242B252B03
:1005700061F7C8010E947802A1960FB6F894DEBF19
:100580000FBECDBFDF91CF911F910F91BF90AF9064
:100590009F908F9008952F923F924F925F926F920B
:1005A0007F928F929F92AF92BF92CF92DF92EF9203
:1005B000FF920F931F93CF93DF93CDB7DEB7619771
:1005C0000FB6F894DEBF0FBECDBFE8E1F1E0212CFD
:1005D000312C8191882331F08532D9F78FEF281A99
:1005E000380AF7CF7E01E8E2EE0EF11C00E010E0E1
:1005F000C12CD12CF601E85EFE4F8081882309F4DE
:1006000012C1E1E0F0E0EC0FFD1FE00FF11F8532B9
:1006100009F0F4C01082CE0101960E94780219827E
:10062000FFEFCF1ADF0AF601E85EFE4F80818636C3
:10063000E1F18CF4833609F4D8C0843609F0EDC0BA
:10064000F7014080518082E0E80EF11C052C000C7F
:100650006608770816C08C3661F0833709F0DDC074
:1006600087010E5F1F4FF701808191810E94780200
:10067000C3C0F7014080518062807380E4E0EE0ED9
:10068000F11C77FE0EC08DE20E94CF00662777270F
:10069000CB0164197509860997094AE00E948A020C
:1006A000BCC04AE0C301B201F9CFF70140805180DC
:1006B00062807380F4E0EF0EF11CA3019201C3018C
:1006C000B2010E94900A882319F083E391E01AC0D6
:1006D00053014201E894B7F82FEF3FEF4FE75FE790
:1006E000C501B4010E94900A81110FC02FEF3FEFA6
:1006F0004FE75FE7C501B4010E94940818162CF477
:1007000087E391E00E94780288C02FEF3FEF4FE728
:100710005FE4C301B2010E948B0A181654F02FEF58
:100720003FEF4FE75FECC301B2010E94940887FFDF
:1007300003C08BE391E0E6CF20E030E0A901C301E4
:10074000B2010E94940887FF07C08DE20E94CF008B
:1007500077FA709477F870942AE037ED43EA5BE318
:10076000C301B2010E94F0094B015C010E945C0AC6
:100770002B013C010E9499089B01AC01C501B40109
:100780000E94EF094B015C014AE0C301B2010E94E3
:100790008A028EE20E94CF0020E030E040E251E485
:1007A000C501B4010E94FA084B015C010E945C0A79
:1007B0002B01612C712C4AE0C301B2010E948A0214
:1007C000C301B2010E9499089B01AC01C501B401AB
:1007D0000E94EF0920E030E040E251E40E94FA0874
:1007E0000E945C0A80E090E058CF87010E5F1F4FA7
:1007F000F70180810E94CF0078010FC080830F5FD6
:100800001F4F0F7011270115110549F4198ACE01E8
:1008100001960E947802198202C000E010E0FFEF0A
:10082000CF1ADF0AE7CE8FE391E00E947802C10180
:10083000019661960FB6F894DEBF0FBECDBFDF9173
:10084000CF911F910F91FF90EF90DF90CF90BF90CD
:10085000AF909F908F907F906F905F904F903F9060
:100860002F9008950E94B40C0F931F93CF93DF93A2
:10087000EC0188819981009729F02A813B81261714
:10088000370788F48B016F5F7F4F0E94EA0B009758
:1008900061F0998388831B830A832C813D81232BFC
:1008A00011F4FC01108281E001C080E0DF91CF9162
:1008B0001F910F910895CF92DF92EF92FF920F93C5
:1008C0001F93CF93DF9300D0CDB7DEB78C01C62E38
:1008D000FC0111821082138212821582148260E060
:1008E00070E00E943404F8012081318181110EC032
:1008F0002115310519F0C9010E94520BF80111822E
:100900001082158214821382128208C0F8011582A7
:10091000148262E371E0C9010E94C20C0E94DA00F5
:100920000C2C000CDD0897FD23C08C159D0501F1F2
:1009300089831A82F801E480F580FFEFEF1AFF0A3D
:10094000B701C8010E943404882379F0F80120819E
:10095000318184819581BE016F5F7F4F820F931F2C
:100960000E94C20CF801F582E4820E94DA00DBCF1B
:10097000C8010F900F90DF91CF911F910F91FF90C1
:10098000EF90DF90CF9008951F920F920FB60F92C5
:1009900011242F933F938F939F93AF93BF93809195
:1009A0004B0190914C01A0914D01B0914E013091BD
:1009B000460123E0230F2D3720F40196A11DB11D20
:1009C00005C026E8230F0296A11DB11D2093460104
:1009D00080934B0190934C01A0934D01B0934E0135
:1009E0008091470190914801A0914901B0914A013D
:1009F0000196A11DB11D8093470190934801A093DA
:100A00004901B0934A01BF91AF919F918F913F915E
:100A10002F910F900FBE0F901F9018951F920F925D
:100A20000FB60F9211242F933F934F935F936F93C1
:100A30007F938F939F93AF93BF93EF93FF938FE435
:100A400091E00E94E401FF91EF91BF91AF919F91DE
:100A50008F917F916F915F914F913F912F910F9067
:100A60000FBE0F901F9018951F920F920FB60F9206
:100A700011242F938F939F93EF93FF93E0915F0146
:100A8000F09160018081E0916501F091660182FD45
:100A900012C09081809168018F5F8F7320916901EE
:100AA000821751F0E0916801F0E0E15BFE4F958F15
:100AB0008093680101C08081FF91EF919F918F9198
:100AC0002F910F900FBE0F901F901895109252010A
:100AD0001092510188EE93E0A0E0B0E080935301C2
:100AE00090935401A0935501B09356018CE091E08E
:100AF0009093500180934F0185EC90E090935C01BE
:100B000080935B0184EC90E090935E0180935D01A3
:100B100080EC90E09093600180935F0181EC90E025
:100B2000909362018093610182EC90E09093640164
:100B30008093630186EC90E0909366018093650159
:100B4000109268011092690110926A0110926B0173
:100B50001092ED011092F3011092FA011092FB0134
:100B60001092FC011092FD0181E08093F9018093C5
:100B7000F6011092F70192E09093F8018093EC0156
:100B800085E790E09093F1018093F0010E94BD0A07
:100B90009093F5018093F401009761F025E7FC0143
:100BA00011922A95E9F787E290E09093EF01809304
:100BB000EE0108C01092F1011092F0011092EF01C5
:100BC0001092EE0185E08093F2018091ED0188237F
:100BD00039F061E085E00E94200185E00E948800F4
:100BE000E9EAF0E0E491F0E0EE0FFF1FE656FF4F78
:100BF000859194919093FF018093FE01EBE8F0E0E2
:100C0000E491E09300020895CF93DF93CDB7DEB770
:100C10002F970FB6F894DEBF0FBECDBF789484B582
:100C2000826084BD84B5816084BD85B5826085BDE8
:100C300085B5816085BD80916E00816080936E0076
:100C40001092810080918100826080938100809168
:100C50008100816080938100809180008160809319
:100C600080008091B10084608093B1008091B000D9
:100C700081608093B00080917A00846080937A00D4
:100C800080917A00826080937A0080917A008160FE
:100C900080937A0080917A00806880937A00109225
:100CA000C100E0915F01F091600182E08083E091FA
:100CB0005B01F0915C011082E0915D01F0915E01B9
:100CC0008FEC808310926701E0916301F0916401E1
:100CD00086E08083E0916101F09162018081806112
:100CE0008083E0916101F09162018081886080835E
:100CF000E0916101F0916201808180688083E091E0
:100D00006101F091620180818F7D80838091F20189
:100D100087FD07C061E00E9420018091F2010E94DE
:100D2000880081E08093ED01E8E03E2E8FE491E0C1
:100D30000E94CE01892BD1F36CE2CE0101960E9474
:100D40005B0409811A810115110521F0C8010E9477
:100D5000580803C060E070E0CB01709345016093D8
:100D60004401C8010E94520B8FE491E00E94AC0143
:100D70006CE2CE0101960E945B0409811A81011583
:100D8000110521F0C8010E94580803C060E070E01E
:100D9000CB017093430160934201C8010E94520B42
:100DA0008FE491E00E94AC0160E0CE0101960E94C8
:100DB0005B0409811A810115110521F0C8010E9407
:100DC000580803C060E070E0CB017B01C8010E94BD
:100DD000520B80914401909145018F3F910509F09C
:100DE0002CF497FF05C080E090E002C08FEF90E008
:100DF0009093450180934401209142013091430139
:100E00002F3F310509F02CF437FF05C020E030E01A
:100E100002C02FEF30E030934301209342014FEFA7
:100E2000E416F10409F02CF4F7FE06C0E12CF12CD5
:100E300003C0EE24EA94F12CF0920101E09200014B
:100E4000FF92EF923F932F939F938F93A8E1B1E08E
:100E5000BF93AF930E94CB020FB6F894DEBF0FBED4
:100E6000CDBFE12CF12CC12CD12C00E010E0209161
:100E7000000130914201809144014091EE01509176
:100E8000EF010417150708F04BC090E0A0E0B0E0B8
:100E9000DC0199278827932B822B2D016624772448
:100EA000892E9A2EAB2EBB24382D282F6091F3016A
:100EB000662389F0462F50E0449D9001459D300DFA
:100EC000549D300D1124432E869E90011124869F3F
:100ED000C0011124292F4091F9015091F601809110
:100EE000F4019091F501451303C08C0D9D1D06C0C2
:100EF0008E0D9F1DFC01E40FF11D10824091F60143
:100F0000FC01E40FF11D40824091F701FC01E40F68
:100F1000F11D30833091F801FC01E30FF11D2083B6
:100F20008091F4019091F501892B09F4A0C00E94F1
:100F30005C014090FA015090FB016090FC017090C0
:100F4000FD01DC01CB0184199509A609B7098C3292
:100F50009140A105B10558F3F8948091F00190916A
:100F6000F10198878F83E091F401F091F501DF01A1
:100F7000119680818F879091EC01E091FE01F091B4
:100F8000FF0180910002992309F42DC09081982BD4
:100F90009E879081809589238D878D858A87398664
:100FA0005E856D854F8539852A858F81988550832B
:100FB00047FD252F3A952083262F39F0441F00C086
:100FC00000006083000000C0F2CF38E04D916083E4
:100FD0000000019761F7F093FF01E093FE014F8756
:100FE00039872A8737C09081982B9E87908180957A
:100FF00089238D878D858C873B865E856D854F85A2
:101000003B852C858F819885508347FD252F00C017
:1010100000C0208300C000C000C000C000C06083CA
:101020000000262F3A9541F0441F000000C000C088
:1010300000C000C000C0E8CF38E04D9100C0608320
:1010400000C0019709F7F093FF01E093FE014F877D
:101050003B872C8798878F8378940E945C016093EC
:10106000FA017093FB018093FC019093FD010E94B3
:101070005C010F5F1F4F43E0C40ED11C84E0E80EFB
:10108000F11C0732110509F0F2CE0E946E024ECE1D
:101090008091F4019091F501009711F00E94520B9C
:1010A0008091F20187FD03C060E00C942001089557
:1010B0001F93FC0199278827BC01E89411911032F5
:1010C000E9F3193010F01E30C8F31B3251F01D3215
:1010D00049F4689406C00E947F08610F711D811D4C
:1010E000911D119110531A30B0F33EF490958095F4
:1010F000709561957F4F8F4F9F4F1F910895592F86
:10110000482F372F262F660F771F881F991F660FCE
:10111000771F881F991F620F731F841F951F660F0B
:10112000771F881F991F08950E94D60808F481E050
:101130000895E89409C097FB3EF4909580957095CA
:1011400061957F4F8F4F9F4F9923A9F0F92F96E913
:10115000BB279395F695879577956795B795F11188
:10116000F8CFFAF4BB0F11F460FF1BC06F5F7F4F25
:101170008F4F9F4F16C0882311F096E911C0772337
:1011800021F09EE8872F762F05C0662371F096E840
:10119000862F70E060E02AF09A95660F771F881F0F
:1011A000DAF7880F9695879597F90895990F0008B3
:1011B000550FAA0BE0E8FEEF16161706E807F90729
:1011C000C0F012161306E407F50798F0621B730BC4
:1011D000840B950B39F40A2661F0232B242B252B45
:1011E00021F408950A2609F4A140A6958FEF811DE8
:1011F000811D08950E940D090C947E090E947009BA
:1012000038F00E94770920F0952311F00C946709BB
:101210000C946D0911240C94B2090E948F0970F38B
:10122000959FC1F3950F50E0551F629FF001729F8B
:10123000BB27F00DB11D639FAA27F00DB11DAA1F9A
:10124000649F6627B00DA11D661F829F2227B00DE7
:10125000A11D621F739FB00DA11D621F839FA00D72
:10126000611D221F749F3327A00D611D231F849FC2
:10127000600D211D822F762F6A2F11249F57504019
:101280009AF0F1F088234AF0EE0FFF1FBB1F661F94
:10129000771F881F91505040A9F79E3F510580F05D
:1012A0000C9467090C94B2095F3FE4F3983ED4F3C1
:1012B000869577956795B795F795E7959F5FC1F701
:1012C000FE2B880F911D9695879597F9089597F9AC
:1012D0009F6780E870E060E008959FEF80EC0895DC
:1012E00000240A9416161706180609060895002405
:1012F0000A9412161306140605060895092E03947F
:10130000000C11F4882352F0BB0F40F4BF2B11F4F2
:1013100060FF04C06F5F7F4F8F4F9F4F089557FD51
:101320009058440F551F59F05F3F71F04795880F53
:1013300097FB991F61F09F3F79F0879508951216EA
:1013400013061406551FF2CF4695F1DF08C0161696
:1013500017061806991FF1CF869571056105089447
:101360000895E894BB2766277727CB0197F908955E
:101370002F923F924F925F926F927F928F929F92A5
:10138000AF92BF92CF92DF92EF92FF920F931F9393
:10139000CF93DF93CDB7DEB7CA1BDB0B0FB6F89444
:1013A000DEBF0FBECDBF09942A88398848885F8484
:1013B0006E847D848C849B84AA84B984C884DF80F5
:1013C000EE80FD800C811B81AA81B981CE0FD11DD9
:1013D0000FB6F894DEBF0FBECDBFED010895505893
:1013E000BB27AA270E94070A0C947E090E94700955
:1013F00038F00E94770920F039F49F3F19F426F461
:101400000C946D090EF4E095E7FB0C946709E92F45
:101410000E948F0958F3BA1762077307840795076C
:1014200020F079F4A6F50C94B1090EF4E0950B2E9A
:10143000BA2FA02D0B01B90190010C01CA01A00126
:101440001124FF27591B99F0593F50F4503E68F181
:101450001A16F040A22F232F342F4427585FF3CFC2
:10146000469537952795A795F0405395C9F77EF493
:101470001F16BA0B620B730B840BBAF09150A1F0DC
:10148000FF0FBB1F661F771F881FC2F70EC0BA0F62
:10149000621F731F841F48F4879577956795B795EA
:1014A000F7959E3F08F0B0CF9395880F08F09927E5
:1014B000EE0F9795879508950E94970988F09F579A
:1014C00098F0B92F9927B751B0F0E1F0660F771F68
:1014D000881F991F1AF0BA95C9F714C0B13091F05E
:1014E0000E94B109B1E008950C94B109672F782FDB
:1014F0008827B85F39F0B93FCCF386957795679523
:10150000B395D9F73EF490958095709561957F4F8E
:101510008F4F9F4F08950E94D60808F48FEF0895CB
:101520000E94D608880B990B0895A1E21A2EAA1BD7
:10153000BB1BFD010DC0AA1FBB1FEE1FFF1FA21783
:10154000B307E407F50720F0A21BB30BE40BF50B80
:10155000661F771F881F991F1A9469F76095709509
:10156000809590959B01AC01BD01CF010895EE0FD0
:10157000FF1F0590F491E02D0994CF93DF93823003
:10158000910510F482E090E0E0910302F0910402F2
:1015900020E030E0C0E0D0E0309711F1408151818F
:1015A00048175907C0F04817590761F482819381A1
:1015B000209719F09B838A832BC090930402809319
:1015C000030226C02115310519F04217530718F4FC
:1015D0009A01BE01DF01EF010280F381E02DDCCF33
:1015E0002115310509F1281B390B2430310590F400
:1015F00012968D919C9113976115710521F0FB0155
:101600009383828304C09093040280930302FD01BC
:10161000329644C0FD01E20FF31F81939193225053
:1016200031092D933C933AC020910102309102027E
:10163000232B41F4209104013091050130930202E3
:1016400020930102209102013091030121153105FF
:1016500041F42DB73EB74091060150910701241B7C
:10166000350BE0910102F0910202E217F307A0F4BA
:101670002E1B3F0B2817390778F0AC014E5F5F4FE8
:101680002417350748F04E0F5F1F50930202409316
:1016900001028193919302C0E0E0F0E0CF01DF917D
:1016A000CF9108950F931F93CF93DF93009709F481
:1016B0008CC0FC01329713821282009103021091B8
:1016C00004020115110581F420813181820F931FDD
:1016D00020910102309102022817390779F5F09321
:1016E0000202E093010271C0D80140E050E0AE1761
:1016F000BF0750F412962D913C911397AD0121151F
:10170000310509F1D901F3CF9D01DA013383228339
:1017100060817181860F971F8217930769F4EC012E
:1017200028813981260F371F2E5F3F4F3183208359
:101730008A819B8193838283452B29F4F093040251
:10174000E093030242C01396FC93EE931297ED01CF
:10175000499159919E01240F351FE217F30771F447
:1017600080819181840F951F029611969C938E9390
:101770008281938113969C938E931297E0E0F0E020
:10178000D80112968D919C911397009719F0F8014A
:101790008C01F6CF8D919C9198012E5F3F4F820F67
:1017A000931F20910102309102022817390769F432
:1017B000309729F4109204021092030202C013829F
:1017C00012821093020200930102DF91CF911F91C8
:1017D0000F910895A0E0B0E0E0EFFBE00C94BC09AD
:1017E000EC01009721F4CB010E94BD0AB8C0FC01B6
:1017F000E60FF71F9C0122503109E217F30708F4A6
:10180000ACC0D9010D911C91119706171707B0F0C4
:101810000530110508F49FC0C80104978617970783
:1018200008F499C002501109061B170B019311937C
:101830006D937C93CF010E94520B8DC05B01A01A67
:10184000B10A4C01800E911EA0910302B0910402D6
:1018500040E050E0E12CF12C109709F44AC0A815A3
:10186000B905D1F56D907C901197630182E0C80EA7
:10187000D11CCA14DB0480F1A3014A195B096A0177
:1018800082E0C80ED11C1296BC9012971396AC91B0
:10189000B5E0CB16D10440F0B282A38351834083DC
:1018A000D9016D937C930AC00E5F1F4FC301800F57
:1018B000911FF90191838083EB2DFA2FE114F1043C
:1018C00031F0D7011396FC93EE93129744C0F09336
:1018D0000402E09303023FC08D919C911197481739
:1018E000590708F4AC017D0112960D90BC91A02D12
:1018F000B3CF809101029091020288159905E1F41D
:1019000046175707C8F48091020190910301009790
:1019100041F48DB79EB74091060150910701841B99
:10192000950BE817F907C8F4F0930202E09301025F
:10193000F901718360830FC0CB010E94BD0A7C0155
:10194000009759F0A801BE010E94B90CCE010E9477
:10195000520BC70104C0CE0102C080E090E0CDB7B9
:10196000DEB7EEE00C94D80981E090E0F8940C9496
:10197000C90CFB01DC0102C001900D9241505040A6
:10198000D8F70895FB01DC0101900D920020E1F7EA
:10199000089510E0CDE5D0E004C0FE010E94B70A32
:0C19A0002196CE35D107C9F7F894FFCF8F
:1019AC009B00000005028000000000000502810180
:1019BC00CE01AC01C0014C020A0A446F6E652C20AA
:1019CC007365742025642C2025642C202564200A42
:1019DC000A0A006E616E00696E66006F7666000D15
:0219EC000A00EF
:00000001FF
